0000000001101999079000179000000000000VILLAGE ADMINISTRACAO E SERVICOS LTDA                                                                                                                 000080039201022930501201302082022020820221659864A
000000001605012013223001CF97
000000002621012013013001B127
000000003621012013234601354D
0000000044210120132347010120150000000000000007FAE
0000000056010120150000028FB1
000000006601012015000001579F
0000000076060220150238020BD4
0000000084060220150239260320211746777777777771B81
000000009226032021174600008138473622101999079000179000000000000VILLAGE ADMINISTRACAO E SERVICOS LTDA                                                                                                                 RUA VILA RICA, 843, PADRE EUSTAQUIO BELO HORIZONTE-MG                                               00C1
0000000105260320211746I010234460692JOCEMAR DE SOUZA                                    0000081384736229BD9
0000000115260320211746I010262891678Paulo Afonso Avezzani                               000008138473622C113
0000000125260320211746I010693401173MARILDA MIANA                                       00000813847362279C4
0000000135260320211746I010751731703Maria Lucia Duque                                   0000081384736229410
0000000145260320211746I010828275154Rosangela Aparecida de Souza                        0000081384736225CDD
0000000155260320211746I012050588250Oseir Vieira Cassola                                000008138473622AEE4
0000000165260320211746I012185899432WILSON MARTINS DE MELLO                             000008138473622E183
0000000175260320211746I012219617841MARTA REGINA GONCALVES DE FIGUEIREDO                000008138473622E785
0000000185260320211746I012228171710Marta Regina Barbara                                0000081384736228279
0000000195260320211746I012230704607Anderson Vieira Henriques                           000008138473622EEC8
0000000205260320211746I012282479329MARCIO DAVID TEIXEIRA                               000008138473622C992
0000000215260320211746I012288200806VALERIA CRISTINA LOUREIRO VASCONCELLOS              0000081384736228F20
0000000225260320211746I012300931232Patricia Luchesi                                    00000813847362236E9
0000000235260320211746I012312225214SONIA REGINA BRINATI                                0000081384736225B75
0000000245260320211746I012312244340JUSCEMAR DE OLIVEIRA SALAZAR                        0000081384736226227
0000000255260320211746I012386476075SANDRA APARECIDA DA SILVA                           000008138473622F5BA
0000000265260320211746I012433931314SANDRA FERREIRA ALVEZ                               0000081384736223BA3
0000000275260320211746I012433977292Elisangela Dos Santos                               000008138473622F96D
0000000285260320211746I012443332227Arlene Cristina Afonso Rodrigues                    0000081384736221525
0000000295260320211746I012454054789Nilza Elisabeth da Silva                            0000081384736225F70
0000000305260320211746I012454100683Carlos Henrique Chaves Tanini                       0000081384736224095
0000000315260320211746I012464455891Arlem Martins de Rezende                            0000081384736229196
0000000325260320211746I012480702458VLADIMIR NOGUEIRA DA SILVA                          000008138473622F43F
0000000335260320211746I012480854878ANDRE MACEDO                                        000008138473622E7C0
0000000345260320211746I012507304520LAINER AUGUSTO DA CUNHA SERRANO                     0000081384736229949
0000000355260320211746I012511927308Flavia Maria Pimenta Menezes                        0000081384736225E0C
0000000365260320211746I012514063258JEFFERSON ALESSANDRO GUIMARAES                      0000081384736228429
0000000375260320211746I012518917243Daniela Monteiro Silveira                           0000081384736223F4C
0000000385260320211746I012524140999Ana Cristina do Nascimento Andries                  00000813847362243C8
0000000395260320211746I012535320209JOSE LUIZ DE PAULA OLIVEIRA                         000008138473622F7B7
0000000405260320211746I012597676341MARCELO HAGALE MACHADO                              0000081384736224A63
0000000415260320211746I012607022349Bruno Santos Pereira                                000008138473622C260
0000000425260320211746I012608285343Daniela Alves Pereira de Sa                         000008138473622C11A
0000000435260320211746I012663448348Marco Antonio da Silva Rodrigues                    00000813847362261AC
0000000445260320211746I012664477139JUSSARA MARIA DA SILVA COSTA                        000008138473622C968
0000000455260320211746I012670493345Maria Lucia da Cunha Carmona                        000008138473622BAC1
0000000465260320211746I012680658347MARCOS ADRIANO DA SILVA                             00000813847362286F1
0000000475260320211746I012741015343Rosimar Adriana Cezario                             000008138473622D2F5
0000000485260320211746I012863214340JULIANA CAMPOS DE SOUZA                             00000813847362224EF
0000000495260320211746I012879984604Anderson de Oliveira Fontes Lemos                   000008138473622369A
0000000505260320211746I012892830119Alessandra Cristina Zanetti                         00000813847362238B8
0000000515260320211746I012926593343Cassia Teixeira Pifano                              000008138473622DF3A
0000000525260320211746I012926630346Alexandre Pessoa Dornelas                           000008138473622C600
0000000535260320211746I012941337131LETICIA FREITAS FERNANDES                           00000813847362245E9
0000000545260320211746I013013995091LAURA MACHADO FERRAZ SANTOS                         000008138473622F33D
0000000555260320211746I013025971117BRUNO FELIPE NASCIMENTO RIBEIRO                     000008138473622CF2B
0000000565260320211746I013029477346SHEILA NEVES                                        000008138473622C502
0000000575260320211746I013072924340Luciana Figueiredo                                  0000081384736229BAE
0000000585260320211746I013087452342HELTON RODRIGO DE OLIVEIRA                          000008138473622FF60
0000000595260320211746I013088986340Aline Fernanda dos Santos                           0000081384736223402
0000000605260320211746I013152245342SILVIANE LOURDES DE ALMEIDA                         000008138473622045B
0000000615260320211746I013153316588Adelair de Fonseca                                  000008138473622AC9F
0000000625260320211746I013168813345MARION TORMEN DE SOUZA                              0000081384736221DF9
0000000635260320211746I013181140340Wanessa De Fatima Alonso Ribeiro                    000008138473622FCBB
0000000645260320211746I013231708345GLAUCIA VARGAS DE OLIVEIRA                          0000081384736224375
0000000655260320211746I013268414345Maria Alice Lima Allemand                           000008138473622DE45
0000000665260320211746I013288919345JULIANA APARECIDA TERTULIANO RIBEIRO COUTO          000008138473622208D
0000000675260320211746I013292116340Marcela dos Santos Toledo                           00000813847362291DD
0000000685260320211746I013327646340SARAH HELENA CYSNE LOPES FERNANDES                  00000813847362270A4
0000000695260320211746I013347933345GIOVANA BARBOSA DA SILVA                            0000081384736226618
0000000705260320211746I013358786349NATALIA DE MIRA BRAGA CORREA                        00000813847362213C3
0000000715260320211746I013367899347GISLANE BALDUTTI DA SILVA                           000008138473622E64B
0000000725260320211746I013386797341Karolina de Almeida Moreira                         000008138473622D012
0000000735260320211746I013387350340HORTENCIA CEZAR PINTO                               00000813847362240E4
0000000745260320211746I013394966343JULIO CESAR MONTEIRO DA SILVA                       0000081384736224A5B
0000000755260320211746I013432947347Renata Goncalves Pinto                              0000081384736226E0D
0000000765260320211746I014662072529REGIS LUCIO PASTORI DE OLIVEIRA FONSECA             0000081384736229EDC
0000000775260320211746I015119536275NATALIA DE CASTRO CANTUARIA                         0000081384736227034
0000000785260320211746I015384589276Leticia Mariano dos Santos Silva                    0000081384736226D3A
0000000795260320211746I015876645277Leonardo pereira de Souza                           0000081384736229386
0000000805260320211746I016055181372Debora Dos Santos Reis                              000008138473622EE98
0000000815260320211746I016132487124Danyel Henrique da Silva Vicente                    000008138473622248B
0000000825260320211746I016195012468JULIANA DA CRUZ MACHADO                             000008138473622E777
0000000835260320211746I016209597190Gislaine Cristina de oliveira                       0000081384736228E87
0000000845260320211746I016211724935Francelli Martins Moreira                           000008138473622A7F2
0000000855260320211746I016407743339LUANA FARIA PEREIRA                                 0000081384736220AA2
0000000865260320211746I016433038426LEIDIANA CARLA DA SILVA                             000008138473622CF96
0000000875260320211746I016578085824Ronei Wagner dos Santos Andrade                     0000081384736224805
0000000885260320211746I016598259240SARAH KENIA RIBEIRO DE ARAUJO                       0000081384736222D71
0000000895260320211746I016605150490Rafael Lauro Brugger                                000008138473622BB77
0000000905260320211746I017028666717Fernando Lobo de Abreu                              0000081384736221FF0
0000000915260320211746I017053109680Lilian de Fatima Pereira Araujo                     00000813847362239E1
0000000925260320211746I018087985147Gilmar David Dos Santos                             00000813847362220DB
0000000935260320211746I019008629944Clecius Campos Correa                               000008138473622445D
0000000945260320211746I019042864276MAXMILLER FREITAS FERNANDES                         000008138473622B7A2
0000000955260320211746I020043348984LEANDRA APARECIDA SOUZA                             000008138473622DA8C
0000000965260320211746I020068874779RAFAELA DALVAS                                      00000813847362223BA
0000000975260320211746I020068898023TALISON PIRES VARDIEIRO                             0000081384736225778
0000000985260320211746I020075242154Ben Hur Guarconi Megiolaro                          000008138473622D46B
0000000995260320211746I020075246745SAMARA RODRIGUES DO NASCIMENTO                      0000081384736225903
0000001005260320211746I020089963967Priscilla dos Reis Oliveira Coutinho                0000081384736225314
0000001015260320211746I020092023406ANDREIA CLAUDIA MATIAS                              000008138473622F7E4
0000001025260320211746I020092023430Andreza Claudia Campos Batista                      0000081384736224D6E
0000001035260320211746I020092028858JOANA APARECIDA DE OLIVEIRA                         0000081384736228451
0000001045260320211746I020092033223Djenanne Layla dos Santos Granato                   0000081384736223B25
0000001055260320211746I020123427236Kiara de Oliveira Rocha dos Santos                  000008138473622FC84
0000001065260320211746I020132009433Deise Folrencio de Jesus                            0000081384736220A5E
0000001075260320211746I020150587893MARIANA PAULA CARVALHO                              0000081384736228AF9
0000001085260320211746I020172302271Maria Cristina Lourenco                             0000081384736227EC2
0000001095260320211746I020212179254Nivea Maria de Moraes Ferreira                      000008138473622C013
0000001105260320211746I020365563646Pedro Henrique Landim                               00000813847362208F4
0000001115260320211746I020400042376VITOR SILVA RAMOS                                   0000081384736226665
0000001125260320211746I020411043824Adyelhe Tagliate de Almeida                         000008138473622C349
0000001135260320211746I020411117127Daniel Jose Martinho dos Reis                       000008138473622B012
0000001145260320211746I020411175925MARIANA PEREIRA DE CARVALHO                         0000081384736224014
0000001155260320211746I020430814466Ana Carolina Lopes                                  000008138473622B4CC
0000001165260320211746I020460223253Caio Montesano Goulart                              00000813847362266CC
0000001175260320211746I020461389619Aline Ribeiro Novaes                                0000081384736222126
0000001185260320211746I020462627157VANIA APARECIDA DE PAULA SILVA                      0000081384736220151
0000001195260320211746I020608928768DOUGLAS LUIZ JUVENAL RIBEIRO                        0000081384736226F80
0000001205260320211746I020617695711Andressa Pamela Ferreira de Jesus                   0000081384736223296
0000001215260320211746I020683753538Monique carolina Franca de souza                    000008138473622A924
0000001225260320211746I020699620931BRAULIO DE OLIVEIRA SILVEIRA                        0000081384736221AB9
0000001235260320211746I020705434863SIMONE LIMA DA SILVA                                00000813847362257F1
0000001245260320211746I020707469117TAYNAR CAROLINE DE OLIVEIRA SCAFUTTO                000008138473622E2D6
0000001255260320211746I020707469125TAYLA CRISTINA DE OLIVEIRA                          0000081384736225311
0000001265260320211746I020755696551JEANE ATALAIA RODRIGUES MATTOS                      000008138473622C040
0000001275260320211746I020770661135LAIS CERQUEIRA FERNANDES                            000008138473622E064
0000001285260320211746I021009990731Danilo De Souza Sobreira                            000008138473622FFED
0000001295260320211746I021221824343Bruna Vireque Rossi                                 000008138473622A2CE
0000001305260320211746I021281076025MAICON CRISTIAN SILVA FELIZARDO                     0000081384736223DAC
0000001315260320211746I021288976277GUSTAVO TEMPONE DE OLIVEIRA FARIA                   0000081384736228F9A
0000001325260320211746I021290551644TAMIRIS KELINE PEREIRA CORREIA                      0000081384736229EB8
0000001335260320211746I022823836364MAYRA IZA DE SOUZA CIRINO                           000008138473622EF7C
0000001345260320211746I023705372218PRISCILA REIS VIEIRA                                000008138473622876F
00000013560504202110400244E7
0000001366190520211034028C98
0000001375190520211359A010234460692JOCEMAR DE SOUZA                                    0004777777777778D70
0000001385190520211359A010693401173MARILDA MIANA                                       000477777777777A816
0000001395190520211359I012122503485Elizabeth Aparecida de Almeida Talha                0000777777777772083
0000001405190520211359A012185899432WILSON MARTINS DE MELLO                             00047777777777701D6
0000001415190520211359A012219617841MARTA REGINA GONCALVES DE FIGUEIREDO                00047777777777707D0
0000001425190520211359I012228272762Ezio Ferraz Braga                                   0000777777777773136
0000001435190520211359I012247286463Maria Celia Maia Teixeira                           00007777777777782EA
0000001445190520211359A012282479329MARCIO DAVID TEIXEIRA                               00047777777777706B5
0000001455190520211359A012288200806VALERIA CRISTINA LOUREIRO VASCONCELLOS              0004777777777774007
0000001465190520211359A012312225214SONIA REGINA BRINATI                                00047777777777713A3
0000001475190520211359A012312244340JUSCEMAR DE OLIVEIRA SALAZAR                        0004777777777770AB4
0000001485190520211359I012319273656Webert Jose Guedes de Britto                        000077777777777200F
0000001495190520211359A012386476075SANDRA APARECIDA DA SILVA                           0004777777777774591
0000001505190520211359I012398929754Eliane Alves Muller                                 0000777777777772311
0000001515190520211359E012433931314SANDRA FERREIRA ALVEZ                               0000777777777771DF0
0000001525190520211359A012433977292Elisangela Dos Santos                               000477777777777A1D4
0000001535190520211359E012443332227Arlene Cristina Afonso Rodrigues                    00007777777777773FC
0000001545190520211359A012454054789Nilza Elisabeth da Silva                            00047777777777778C5
0000001555190520211359A012464455891Arlem Martins de Rezende                            0004777777777775EB1
0000001565190520211359A012480702458VLADIMIR NOGUEIRA DA SILVA                          0004777777777773B18
0000001575190520211359A012507304520LAINER AUGUSTO DA CUNHA SERRANO                     000477777777777F1DA
0000001585190520211359I012511995885Frederico de Oliveira Castro                        0000777777777770EFF
0000001595190520211359A012514063258JEFFERSON ALESSANDRO GUIMARAES                      000477777777777AC30
0000001605190520211359A012524140999Ana Cristina do Nascimento Andries                  000477777777777FCD4
0000001615190520211359A012535320209JOSE LUIZ DE PAULA OLIVEIRA                         00047777777777748AB
0000001625190520211359A012597676341MARCELO HAGALE MACHADO                              000477777777777E4BD
0000001635190520211359A012607022349Bruno Santos Pereira                                0004777777777776CBE
0000001645190520211359A012664477139JUSSARA MARIA DA SILVA COSTA                        0004777777777777875
0000001655190520211359A012680658347MARCOS ADRIANO DA SILVA                             000477777777777AFDE
0000001665190520211359I012764274345Thiago Medina Bastos                                0000777777777779ADD
0000001675190520211359I012801178340Alessandra da Silva Matos                           0000777777777772B16
0000001685190520211359A012863214340JULIANA CAMPOS DE SOUZA                             00047777777777795F2
0000001695190520211359I012923363347Renata Machado Soares de Oliveira                   000077777777777933C
0000001705190520211359A012941337131LETICIA FREITAS FERNANDES                           0004777777777776CC6
0000001715190520211359A013013995091LAURA MACHADO FERRAZ SANTOS                         000477777777777FA57
0000001725190520211359A013025971117BRUNO FELIPE NASCIMENTO RIBEIRO                     000477777777777D982
0000001735190520211359A013029477346SHEILA NEVES                                        000477777777777CC68
0000001745190520211359I013072920973Andressa  Silva dos Santos                          000077777777777F0B3
0000001755190520211359A013072924340Luciana Figueiredo                                  0004777777777773570
0000001765190520211359A013087452342HELTON RODRIGO DE OLIVEIRA                          0004777777777771134
0000001775190520211359A013088986340Aline Fernanda dos Santos                           000477777777777DA56
0000001785190520211359A013152245342SILVIANE LOURDES DE ALMEIDA                         000477777777777FAFB
0000001795190520211359A013168813345MARION TORMEN DE SOUZA                              0004777777777777B6B
0000001805190520211359I013206297345Paulo Victor Delgado Pereira                        0000777777777778D8C
0000001815190520211359A013231708345GLAUCIA VARGAS DE OLIVEIRA                          00047777777777788DB
0000001825190520211359I013239031344Tatiane Martins Pacheco                             0000777777777774C14
0000001835190520211359A013288919345JULIANA APARECIDA TERTULIANO RIBEIRO COUTO          000477777777777EB23
0000001845190520211359A013327646340SARAH HELENA CYSNE LOPES FERNANDES                  00047777777777743F7
0000001855190520211359A013347933345GIOVANA BARBOSA DA SILVA                            000477777777777554B
0000001865190520211359A013358786349NATALIA DE MIRA BRAGA CORREA                        0004777777777775030
0000001875190520211359A013367899347GISLANE BALDUTTI DA SILVA                           000477777777777A5B8
0000001885190520211359I013371025348Leandro Soares Giovanetti                           0000777777777777E03
0000001895190520211359A013387350340HORTENCIA CEZAR PINTO                               000477777777777439D
0000001905190520211359A013394966343JULIO CESAR MONTEIRO DA SILVA                       0004777777777770604
0000001915190520211359I013495557341Monise Rodrigues Pedrosa                            0000777777777773927
0000001925190520211359A014662072529REGIS LUCIO PASTORI DE OLIVEIRA FONSECA             000477777777777D283
0000001935190520211359A015119536275NATALIA DE CASTRO CANTUARIA                         0004777777777773C6B
0000001945190520211359I015236198279Marlyara Campos Ciqueira                            000077777777777F332
0000001955190520211359A016055181372Debora Dos Santos Reis                              000477777777777D743
0000001965190520211359A016195012468JULIANA DA CRUZ MACHADO                             000477777777777595D
0000001975190520211359I016359446414Lorena Vasconcelos Barbosa                          0000777777777776AE4
0000001985190520211359A016407743339LUANA FARIA PEREIRA                                 0004777777777774C75
0000001995190520211359A016433038426LEIDIANA CARLA DA SILVA                             0004777777777779682
0000002005190520211359A016598259240SARAH KENIA RIBEIRO DE ARAUJO                       000477777777777C795
0000002015190520211359A016605150490Rafael Lauro Brugger                                0004777777777775193
0000002025190520211359A018087985147Gilmar David Dos Santos                             000477777777777A55C
0000002035190520211359I019001924266Daudiceia Renata Moreira                            00007777777777798D6
0000002045190520211359A019042864276MAXMILLER FREITAS FERNANDES                         0004777777777773225
0000002055190520211359A020043348984LEANDRA APARECIDA SOUZA                             0004777777777775F0B
0000002065190520211359A020068874779Rafaela Dalvas Alves                                000<777777777776548
0000002075190520211359A020068898023TALISON PIRES VARDIEIRO                             000477777777777D2FF
0000002085190520211359I020068924733Anderson Marques Pinto                              0000777777777772EC0
0000002095190520211359A020075246745SAMARA RODRIGUES DO NASCIMENTO                      000477777777777DC84
0000002105190520211359A020092023430Andreza Claudia Campos Batista                      0004777777777772963
0000002115190520211359A020092028858JOANA APARECIDA DE OLIVEIRA                         000477777777777E05C
0000002125190520211359A020092033223Djenanne Layra dos Santos Granato                   000877777777777E2F7
0000002135190520211359A020150587893MARIANA PAULA CARVALHO                              000477777777777CEB1
0000002145190520211359A020400042376VITOR SILVA RAMOS                                   000477777777777B5B3
0000002155190520211359A020411175925MARIANA PEREIRA DE CARVALHO                         000477777777777AC44
0000002165190520211359A020430814466Ana Carolina Lopes                                  000477777777777475F
0000002175190520211359I020459127688Cassy Jhonny de Mello Rodrigues                     00007777777777714F9
0000002185190520211359A020462627157VANIA APARECIDA DE PAULA SILVA                      0004777777777776AF0
0000002195190520211359A020608928768DOUGLAS LUIZ JUVENAL RIBEIRO                        0004777777777770421
0000002205190520211359A020683753538Monique carolina Franca de souza                    0004777777777774574
0000002215190520211359A020699620931BRAULIO DE OLIVEIRA SILVEIRA                        000477777777777E92A
0000002225190520211359A020705434863Simonne Lima da Silva                               000<77777777777150B
0000002235190520211359A020707469117TAYNAR CAROLINE DE OLIVEIRA SCAFUTTO                0004777777777772EC3
0000002245190520211359A020707469125TAYLA CRISTINA DE OLIVEIRA                          000477777777777BF41
0000002255190520211359I020728971741Priscila Soares Ferro Lobo                          0000777777777770699
0000002265190520211359A020755696551JEANE ATALAIA RODRIGUES MATTOS                      000477777777777ABE1
0000002275190520211359A020770661135LAIS CERQUEIRA FERNANDES                            0004777777777778BC5
0000002285190520211359I020770728639Braulio  Manoel de Oliveira Portela                 0000777777777776CD5
0000002295190520211359A021009990731Danilo De Souza Sobreira                            00047777777777713BD
0000002305190520211359I021080801164Carolina de Paula Silva                             000077777777777D779
0000002315190520211359A021221824343Bruna Vireque Rossi                                 000477777777777A60C
0000002325190520211359A021281076025MAICON CRISTIAN SILVA FELIZARDO                     00047777777777749CE
0000002335190520211359I021283639426Vitor Knop Linhares                                 000077777777777AD51
0000002345190520211359A021288976277GUSTAVO TEMPONE DE OLIVEIRA FARIA                   0004777777777775C4C
0000002355190520211359A021290551644TAMIRIS KELINE PEREIRA CORREIA                      00047777777777752AD
0000002365190520211359A022823836364MAYRA IZA DE SOUZA CIRINO                           0004777777777773CAA
0000002375190520211359A023705372218PRISCILA REIS VIEIRA                                00047777777777774FC
0000002386210520211437020B7B
0000002396210520211629028A69
000000240631052021064902583E
000000241608062021114902690E
000000242617072021061002E399
0000002436200720211149020CB6
00000024462707202114410224D7
000000245629072021093602B8A5
0000002466290720210939027CD9
000000247629072021093902D4FD
000000248606082021034202F636
0000002496060820210415020013
000000250606082021041502A950
000000251616082021191302AC6F
0000002526160820211913024422
0000002536160820211947028C83
000000254616082021194802C82D
0000002556170820210838029BB6
000000256630082021034902C5D3
00000025763108202115520226F4
000000258601092021022202795D
000000259601092021022302E649
000000260626092021074802A63B
000000261601102021212002839A
000000262607102021180702EAD8
0000002635181020211318I001293440334Carlos Eduardo Rodrigues                            000077777777777497C
0000002645181020211318A010234460692Jocemar de Souza                                    00087777777777777A1
0000002655181020211318A010693401173Marilda Miana                                       000877777777777592C
0000002665181020211318A012122503485Elizabeth Aparecida de Almeida Talha                0004777777777778B3F
0000002675181020211318A012185899432Wilson Martins De Mello                             000877777777777F4A1
0000002685181020211318A012219617841Marta Regina Goncalves De Figueiredo                0008777777777777686
0000002695181020211318A012282479329Marcio David Teixeira                               000877777777777759F
0000002705181020211318A012288200806Valeria Cristina Loureiro Vasconcellos              00087777777777708ED
0000002715181020211318A012312225214Sonia Regina Brinati                                000877777777777AE28
0000002725181020211318A012312244340Juscemar de Oliveira Salazar                        000877777777777A03A
0000002735181020211318A012386476075Sandra Aparecida Da Silva                           0008777777777779E32
0000002745181020211318A012464455891Arlem Martins de Rezende                            0004777777777770F67
0000002755181020211318I012464483992Vanessa Maria Simoes Vidal                          0000777777777779AC0
0000002765181020211318A012480702458Vladimir Nogueira Da Silva                          00087777777777777EF
0000002775181020211318A012480854878Andre Macedo                                        00087777777777776C8
0000002785181020211318A012507304520Lainer Augusto Da Cunha Serrano                     000877777777777F4B4
0000002795181020211318A012511995885Frederico de Oliveira Sales                         000877777777777F76A
0000002805181020211318A012514063258Jefferson Alessandro Guimaraes                      000877777777777D1CF
0000002815181020211318A012524140999Ana Cristina do Nascimento Andries                  0004777777777776FC6
0000002825181020211318A012535320209Jose Luiz de Paula Oliveira                         000877777777777D7E0
0000002835181020211318A012597676341Marcelo Hagale Machado                              0008777777777771A9A
0000002845181020211318A012607022349Bruno Santos Pereira                                000477777777777DFE9
0000002855181020211318I012660367347Clemilson Pereira                                   0000777777777777D92
0000002865181020211318A012664477139Jussara Maria da Silva Costa                        0008777777777771539
0000002875181020211318A012680658347Marcos Adriano Da Silva                             000877777777777201A
0000002885181020211318E012801178340Alessandra da Silva Matos                           000077777777777524A
0000002895181020211318A012863214340Juliana Campos de Souza                             00087777777777765F5
0000002905181020211318I012863591349Fabiano Vanon                                       0000777777777776D12
0000002915181020211318A012941337131Leticia Freitas Fernandes                           000877777777777AB67
0000002925181020211318I012962902105Geandra Rodrigues da Silva Nascimento               00007777777777775E0
0000002935181020211318I012988459136Bismarck Braga Lopes Esteves                        00007777777777786C0
0000002945181020211318A013013995091Laura Machado Ferraz Santos                         0008777777777776DF1
0000002955181020211318A013025971117Bruno Felipe Nascimento Ribeiro                     000<777777777776194
0000002965181020211318A013029477346Sheila Neves                                        00087777777777769AD
0000002975181020211318A013072920973Andressa  Silva dos Santos                          000477777777777A84C
0000002985181020211318E013072924340Luciana Figueiredo                                  00007777777777787C1
0000002995181020211318A013087452342Helton Rodrigo De Oliveira                          000877777777777ECB7
0000003005181020211318A013088986340Aline Fernanda dos Santos                           0004777777777778727
0000003015181020211318A013152245342Silviane Lourdes De Almeida                         0008777777777771FF3
0000003025181020211318E013168813345MARION TORMEN DE SOUZA                              00007777777777707B9
0000003035181020211318I013222202345Cristiane Aparecida Medeiros do Monte               0000777777777779EC6
0000003045181020211318A013231708345Glaucia Vargas De Oliveira                          00087777777777777DA
0000003055181020211318E013239031344Tatiane Martins Pacheco                             0000777777777775617
0000003065181020211318I013271098343Lucas Mesquita Campos                               00007777777777754B6
0000003075181020211318A013288919345Juliana Aparecida Tertuliano Ribeiro Couto          0008777777777774294
0000003085181020211318E013327646340SARAH HELENA CYSNE LOPES FERNANDES                  0000777777777776AE4
0000003095181020211318A013347933345Giovana Barbosa Da Silva                            00087777777777798C5
0000003105181020211318E013358786349NATALIA DE MIRA BRAGA CORREA                        0000777777777770983
0000003115181020211318A013367899347Gislane Baldutti Da Silva                           0008777777777779E18
0000003125181020211318A013386797341Karolyna de Almeida Moreira                         0008777777777777020
0000003135181020211318A013387350340Hortencia Cezar Pinto                               0008777777777770DF6
0000003145181020211318A013394966343Julio Cesar Monteiro da Silva                       00087777777777725E7
0000003155181020211318I013443634345Filipe Genevain Cardoso                             00007777777777729F8
0000003165181020211318I013447903340Ana Paula Dutra Pereira Batista Lopes Cobuci        000077777777777E7A0
0000003175181020211318E014662072529REGIS LUCIO PASTORI DE OLIVEIRA FONSECA             000077777777777036D
0000003185181020211318I014980672279Gabriel Toledo Lobo                                 000077777777777CC75
0000003195181020211318A015119536275Natalia De Castro Cantuaria                         0008777777777776661
0000003205181020211318I015709885707Gian Adolfo Carvalho Rezende                        00007777777777793A2
0000003215181020211318A015876645277Leonardo Pereira de Souza                           000877777777777699D
0000003225181020211318E016055181372Debora Dos Santos Reis                              00007777777777729DF
0000003235181020211318A016195012468Juliana da Cruz Machado                             000877777777777EF92
0000003245181020211318E016359446414Lorena Vasconcelos Barbosa                          0000777777777777FD0
0000003255181020211318A016407743339Luana Faria Pereira                                 000877777777777E79E
0000003265181020211318A016433038426Leidiana Carla Da Silva                             0008777777777775F44
0000003275181020211318E016598259240SARAH KENIA RIBEIRO DE ARAUJO                       0000777777777772D4D
0000003285181020211318E019001924266Daudiceia Renata Moreira                            000077777777777E6AA
0000003295181020211318A019042864276Maxmiller Freitas Fernandes                         0008777777777777876
0000003305181020211318A020043348984Leandra Aparecida Souza                             00087777777777745D3
0000003315181020211318I020068805629Lucas Nascimento Silva                              000077777777777790B
0000003325181020211318A020068898023Talison Pires Vardeiro                              0008777777777770E58
0000003335181020211318E020075246745SAMARA RODRIGUES DO NASCIMENTO                      000077777777777E148
0000003345181020211318A020089963967Priscila dos Reis Oliveira Coutinho                 000877777777777A326
0000003355181020211318A020092023406Andreia Claudia Matias                              0008777777777770024
0000003365181020211318A020092023430Andreza Claudia Campos Batista                      0004777777777772563
0000003375181020211318E020092028858JOANA APARECIDA DE OLIVEIRA                         0000777777777778D75
0000003385181020211318A020132009433Deise Florencio de Jesus                            00087777777777736D3
0000003395181020211318A020150587893Mariana Paula Carvalho                              000877777777777D853
0000003405181020211318I020351255731Lais Reis Pinheiro                                  0000777777777773009
0000003415181020211318A020400042376Vitor Silva Ramos                                   000877777777777A4C9
0000003425181020211318A020411175925Mariana Pereira De Carvalho                         000877777777777646E
0000003435181020211318A020430814466Ana Carolina Lopes                                  000477777777777A260
0000003445181020211318I020459118689Juliana Pivari Meirelles                            000077777777777DADB
0000003455181020211318E020460223253Caio Montesano Goulart                              000077777777777A93E
0000003465181020211318A020462627157Vania Aparecida De Paula Silva                      000877777777777AED1
0000003475181020211318A020608928768Douglas Luiz Juvenal Ribeiro                        000877777777777CEFD
0000003485181020211318A020683753538Monique Carolina Franca de Souza                    000877777777777AF94
0000003495181020211318E020699620931BRAULIO DE OLIVEIRA SILVEIRA                        0000777777777779AF6
0000003505181020211318A020707469117Taynar Caroline De Oliveira Scafutto                000877777777777648D
0000003515181020211318A020707469125Tayla Cristina De Oliveira                          000877777777777CA21
0000003525181020211318A020728971741Priscila Soares Ferro Lobo                          0004777777777770895
0000003535181020211318A020755696551Jeane Atalaia Rodrigues Mattos                      00087777777777709BE
0000003545181020211318A020770661135Lais Cerqueira Fernandes                            0008777777777776F29
0000003555181020211318A020770728639Braulio  Manoel de Oliveira Portela                 0004777777777770216
0000003565181020211318A021221824343Bruna Vireque Rossi                                 0004777777777776C41
0000003575181020211318A021281076025Maicon Cristian Silva Felizardo                     0008777777777775357
0000003585181020211318E021288976277GUSTAVO TEMPONE DE OLIVEIRA FARIA                   0000777777777771016
0000003595181020211318A021290551644Tamiris Keline Pereira Correia                      000877777777777678C
0000003605181020211318A022823836364Mayra Iza de Souza Cirino                           000877777777777BD1B
0000003615181020211318A023705372218Priscila Reis Vieira                                000877777777777E2F0
0000003625181020211318I026804504001Mayara Amanda da Silva                              0000777777777773B0F
0000003635181020211318I026855501379ANA CLARA CAMPOS FORTES                             000077777777777A78B
0000003645251020210758A026804504001Mayara Amanda da Silva                              0002777777777776760
00000036532510202107590268045040015F79
0000003665251020210801A020728971741Priscila Soares Ferro Lobo                          0002777777777771496
00000036732510202108010207289717416AD6
000000368325102021080101246448399261E1
00000036932510202108020134436343450C6A
0000003705251020210803A013222202345Cristiane Aparecida Medeiros do Monte               00027777777777798F6
0000003715251020210803A013222202345Cristiane Aparecida Medeiros do Monte               0002777777777771F07
0000003723251020210804013222202345EC80
00000037332510202108040129233633474DAD
000000374325102021080401337102534801F9
0000003753251020210804020770728639D3A2
00000037632510202108040149806722795602
000000377325102021080501349555734116F0
0000003783251020210805021283639426B4F9
0000003793251020210805012247286463A30D
0000003803251020210806012228272762DE3D
0000003813251020210810020068924733C194
0000003823251020210810012319273656ADB0
0000003835251020210811A012228272762Ezio Ferraz Braga                                   00027777777777760E4
0000003845251020210812A012228272762Ezio Ferraz Braga                                   000277777777777735F
0000003855251020210812A012228272762Ezio Ferraz Braga                                   000277777777777F4AE
0000003865251020210812A012228272762Ezio Ferraz Braga                                   0002777777777776C9C
0000003875251020210813A012319273656Webert Jose Guedes de Britto                        0002777777777770681
0000003885251020210813A012319273656Webert Jose Guedes de Britto                        000277777777777DE39
0000003895251020210814A012319273656Webert Jose Guedes de Britto                        000277777777777BDED
0000003905251020210814A012319273656Webert Jose Guedes de Britto                        000277777777777557F
0000003915251020210815A012398929754Eliane Alves Muller                                 00027777777777722E9
0000003925251020210815A012398929754Eliane Alves Muller                                 000277777777777BADB
0000003935251020210816A012398929754Eliane Alves Muller                                 0002777777777778925
0000003945251020210816A012398929754Eliane Alves Muller                                 0002777777777772E91
00000039532510202108160123989297547B6E
0000003965251020211110A014980672279Gabriel Toledo Lobo                                 0002777777777771B63
0000003975251020211111A014980672279Gabriel Toledo Lobo                                 0002777777777770088
0000003985251020211111A012464483992Vanessa Maria Simoes Vidal                          00027777777777755AD
0000003995251020211112A012464483992Vanessa Maria Simoes Vidal                          0002777777777776653
0000004005251020211112A013222202345Cristiane Aparecida Medeiros do Monte               0002777777777774670
0000004015251020211134A013371025348Leandro Soares Giovanetti                           000277777777777069F
0000004025251020211134A013371025348Leandro Soares Giovanetti                           0002777777777779EAD
0000004035251020211134A013371025348Leandro Soares Giovanetti                           000277777777777195C
0000004043251020211158012464483992AA52
00000040532510202111580122472864637875
0000004063251020211200012398929754E8E4
0000004073251020211200014980672279A8A8
0000004083251020211200013222202345C505
000000409325102021120001222827276258FE
00000041032510202112010123192736565853
00000041132510202112010212836394266C98
0000004123251020211202013495557341A35F
0000004133251020211202013371025348B9D6
0000004143251020211202020770728639B2A8
0000004153251020211202013443634345F967
0000004163251020211202020068924733C675
000000417325102021120602680450400158B8
00000041832510202112060125119958851E7E
0000004193251020211223020728971741AB3C
00000042032510202112500122472864638761
00000042132510202112580124644839925E1C
00000042232510202112590212836394263A2E
0000004233251020211300014980672279BD5E
000000424325102021130001349555734161EA
00000042532510202113010122282727623BC6
00000042632510202113010123192736561020
000000427325102021130101239892975485D6
00000042832510202113010132222023450456
0000004293251020211301012923363347A57B
000000430325102021130201344363434540F0
00000043132510202113020133710253487505
0000004323251020211302020770728639EFBD
00000043332510202113030200689247333A81
00000043432510202113060125119958853825
0000004355251020211307A012511995885Frederico de Oliveira Sales                         0002777777777775065
0000004363251020211307026804504001358A
0000004375251020211308A020068924733Anderson Marques Pinto                              0002777777777779779
0000004385251020211308A021283639426Vitor Knop Linhares                                 0002777777777771BDF
00000043932510202113230207289717412F0C
0000004403251020211402012923363347F2D1
00000044162510202114280305E2
0000004426251020211428049D48
00000044332510202117550122472864636937
0000004443251020211759014980672279E401
0000004453251020211759012464483992C0A3
000000446325102021175901322220234587A6
0000004473251020211759020728971741C59E
0000004483251020211800012923363347F74D
0000004493251020211800012319273656A89E
00000045032510202118010123989297545EC0
00000045132510202118010134436343459800
0000004523251020211801013371025348E516
00000045332510202118010122282727624CB1
0000004545251020211806A013495557341Monise Rodrigues Pedrosa                            0002777777777776935
0000004553251020211806013495557341ECB2
0000004563251020211807020068924733B9BF
000000457325102021180702128363942605D2
0000004583251020211810026804504001D55F
00000045932510202118100125119958857911
00000046032510202118110207707286399704
00000046132610202107560125119958855F33
00000046232610202107570122282727628E3E
000000463326102021075702077072863959A3
0000004643261020210757012464483992C506
0000004653261020210757013371025348FEBC
0000004663261020210757012923363347232E
00000046732610202107570134436343452FCB
0000004683261020210758012319273656FB46
00000046932610202107580134955573412B6D
00000047032610202107580212836394264527
00000047132610202107590123989297540D18
0000004723261020210800012247286463641D
000000473326102021080001322220234515BD
000000474326102021080002006892473316A1
0000004753261020210801014980672279A2BF
00000047632610202108010207289717418320
0000004773261020210810026804504001BE43
00000047832610202111580122282727625F0B
00000047932610202111580124644839926177
000000480326102021115801224728646341FF
0000004813261020211200012398929754998D
00000048232610202112000149806722799122
0000004833261020211200020728971741F85E
0000004843261020211200013371025348571F
000000485326102021120001344363434562EA
0000004863261020211200013495557341A914
00000048732610202112010123192736563C5C
0000004883261020211201021283639426E21F
00000048932610202112010200689247335E72
00000049032610202112020207707286392743
0000004913261020211202026804504001801D
0000004923261020211204012511995885EBDB
00000049332610202112540122472864635DC9
00000049432610202113000134436343457511
00000049532610202113000149806722795FFC
00000049632610202113000207289717417E63
00000049732610202113000129233633473117
00000049832610202113000133710253484EEE
000000499326102021130001239892975411BA
0000005003261020211300012464483992705A
00000050132610202113010212836394265C8B
0000005023261020211301020770728639943B
00000050332610202113010123192736568CC2
0000005043261020211301012511995885460E
0000005053261020211301026804504001EA40
00000050632610202113010122282727627E01
00000050732610202113020132222023452C5F
0000005083261020211302013495557341E802
0000005093261020211302020068924733B08F
0000005103261020211400012923363347B360
0000005113261020211402013222202345988B
000000512426102021170326102021170377777777777AB7C
0000005134261020211703261020211703777777777775F37
0000005145261020211704A012608285343Daniela Alves Pereira de Sa                         0002777777777775994
0000005155261020211704A012608285343Daniela Alves Pereira de Sa                         000277777777777DE65
0000005165261020211704A012608285343Daniela Alves Pereira de Sa                         0002777777777774657
0000005175261020211705A012608285343Daniela Alves Pereira de Sa                         0002777777777775DBC
0000005185261020211705A012608285343Daniela Alves Pereira de Sa                         0002777777777778504
00000051932610202117050126082853433E8F
00000052032610202117550122472864637968
0000005213261020211756012228272762F6F7
0000005223261020211757013443634345CB44
0000005233261020211757021283639426ACB9
00000052432610202117570133710253488BF5
0000005253261020211757012319273656ED36
00000052632610202117580200689247334040
000000527326102021175801349555734118CD
0000005283261020211758013222202345DC90
00000052932610202117580207289717419EA8
0000005303261020211759026804504001FE61
0000005313261020211759020770728639593F
00000053232610202118000129233633476DB8
00000053332610202118000123989297540BFC
00000053432610202118000149806722799295
0000005353261020211801012464483992F354
00000053632610202118020125119958853A82
00000053732710202107550133710253483DF8
0000005383271020210755013443634345E285
000000539327102021075501246448399240AB
0000005403271020210755026804504001578B
0000005413271020210755020770728639F0D5
00000054232710202107560132222023459194
00000054332710202107560212836394265BA1
0000005443271020210756012228272762792B
00000054532710202107560123192736561A2E
000000546327102021075701224728646398F0
00000054732710202107580200689247335E5A
0000005483271020210758013495557341EC5F
00000054932710202107590129233633478AA5
0000005503271020210759012398929754CA2A
00000055132710202108010125119958853218
0000005523271020210802020728971741B610
00000055332710202108030149806722799A0F
00000055432710202111580122282727629633
0000005553271020211158012247286463D609
000000556327102021115901344363434507E1
000000557327102021120001498067227906D4
00000055832710202112000129233633476635
00000055932710202112000207289717412941
0000005603271020211200012398929754A017
0000005613271020211200013371025348FF43
00000056232710202112000124644839928C1A
0000005633271020211200026804504001C2A5
0000005643271020211200013222202345F6B8
00000056532710202112010125119958855ECC
0000005663271020211201020770728639B15E
0000005673271020211201012319273656A9A7
0000005683271020211202021283639426B841
0000005693271020211202013495557341F0C0
00000057032710202112020200689247338E86
00000057132710202112580125119958851291
000000572327102021125801222827276286FF
0000005733271020211259013443634345F3AF
00000057432710202113000149806722796666
00000057532710202113000207289717410F1A
0000005763271020211300012398929754C2A8
0000005773271020211300012923363347A4EC
0000005783271020211300013222202345EF49
00000057932710202113000268045040010271
0000005803271020211300012464483992BE61
0000005813271020211301013371025348C0B8
00000058232710202113010207707286395A00
000000583327102021130101231927365642F9
000000584327102021130202128363942660B2
00000058532710202113020134955573412833
00000058632710202113030200689247337D3E
000000587427102021163827102021163877777777777C653
0000005885271020211638A012923363347Renata Machado Soares de Oliveira                   0002777777777778744
0000005895271020211638A012923363347Renata Machado Soares de Oliveira                   00027777777777700B5
0000005905271020211639A012923363347Renata Machado Soares de Oliveira                   000277777777777743D
0000005915271020211639A012923363347Renata Machado Soares de Oliveira                   000277777777777F3CC
0000005925271020211639A012923363347Renata Machado Soares de Oliveira                   0002777777777776BFE
00000059332710202117500122472864632CB5
00000059432710202117550134436343456936
00000059532710202117550133710253485CC3
0000005963271020211755014980672279A759
00000059732710202117560207289717410180
0000005983271020211756013222202345A930
0000005993271020211757012398929754875B
0000006003271020211758012923363347C00A
000000601327102021180001246448399210EC
0000006023271020211800012319273656A917
00000060332710202118000212836394269DDC
00000060432710202118000134955573410C78
00000060532710202118010268045040012697
0000006063271020211801020770728639C92A
00000060732710202118010200689247335975
0000006083271020211801012228272762585E
00000060932710202118020125119958854B76
000000610328102021075501292336334705F7
0000006113281020210755012464483992075D
0000006123281020210755021283639426260C
0000006133281020210755013222202345EC39
00000061432810202107550123989297545E14
000000615328102021075501344363434598D4
00000061632810202107560200689247336863
0000006173281020210756026804504001F303
00000061832810202107560134955573417607
00000061932810202107560133710253486C8E
0000006203281020210756020770728639B2D2
0000006213281020210757012228272762202C
000000622328102021080001231927365618D4
00000062332810202108000125119958850B3D
0000006243281020210804012247286463E763
00000062532810202108050207289717413DF9
00000062632810202108050149806722791C66
0000006275281020210954E010828275154Rosangela Aparecida de Souza                        000077777777777CC0C
0000006285281020210954A013222202345Cristiane Aparecida Medeiros do Monte               000177777777777C0D9
00000062932810202110560122282727628651
0000006303281020211100014980672279B176
0000006313281020211100020728971741D80A
00000063232810202111000122472864630F10
000000633328102021110002077072863934D6
00000063432810202111000268045040014AAD
000000635328102021110001337102534893C9
0000006365281020211101A020770728639Braulio  Manoel de Oliveira Portela                 000277777777777B117
000000637328102021110201251199588524C6
00000063832810202111560122472864637DF1
0000006393281020211159020728971741235A
00000064032810202112000149806722793861
0000006413281020211200012398929754782D
00000064232810202112000133710253486F9A
0000006433281020211200020770728639BDC1
0000006443281020211200026804504001C3BA
00000064532810202112000124644839928D05
000000646328102021120001231927365634FE
00000064732810202112010125119958856274
0000006483281020211201013495557341E75F
00000064932810202112030212836394262518
000000650328102021120502006892473330D5
00000065132810202112580134436343458A74
0000006523281020211300013222202345E05C
00000065332810202113000123989297548B54
00000065432810202113000124644839929AFE
00000065532810202113020134955573419D6A
0000006563281020211303021283639426D86B
0000006573281020211310020068924733D0C2
0000006583281020211358013443634345BB44
000000659328102021140001292336334742A8
0000006603281020211401013222202345AAE1
00000066132810202117550129233633476B80
0000006623281020211755013371025348B612
000000663328102021175501344363434583E7
00000066432810202117550132222023455B6B
00000066532810202117550122472864632ACB
000000666328102021175502128363942675DC
00000066732810202117550134955573413D5D
0000006683281020211755014980672279D244
0000006693281020211756020728971741749D
00000067032810202117560207707286395A08
0000006713281020211756020068924733CA57
00000067232810202117560123989297549FE4
0000006733281020211757026804504001F0D6
00000067432810202117570123192736563A35
00000067532810202117570122282727625930
00000067632810202117570124644839922FAF
0000006773281020211757012511995885613F
00000067832910202107430122472864630882
00000067932910202107550129233633478064
00000068032910202107550123192736562D18
00000068132910202107550268045040013EDE
00000068232910202107550124644839923882
00000068332910202107550125119958857612
00000068432910202107550132222023454220
0000006853291020210756012398929754E68D
0000006863291020210756012228272762F4FC
00000068732910202107570133710253481838
0000006883291020210757013443634345C745
00000068932910202108000207707286399F94
0000006903291020210800021283639426390C
0000006913291020210800013495557341718D
00000069232910202108010200689247332480
00000069332910202108020149806722791A58
0000006943291020210803020728971741EF62
00000069532910202110590125119958856415
000000696329102021105902680450400180B8
000000697329102021105902077072863927E6
0000006983291020211100014980672279662C
00000069932910202111000207289717410F50
0000007003291020211100013371025348D05B
000000701329102021110001224728646395A7
00000070232910202111550200689247331CB6
0000007033291020211155021283639426A0DB
00000070432910202111560122282727624DF4
0000007053291020211158013495557341D68A
0000007063291020211159026804504001B486
000000707329102021115902077072863913D8
00000070832910202111590125119958855E21
0000007093291020211200014980672279B3AA
0000007103291020211200020728971741FC1D
0000007113291020211200012398929754794C
00000071232910202112000122472864638766
0000007133291020211200013371025348C29A
00000071432910202112000124644839922005
0000007153291020211200012319273656D11D
0000007163291020211257012464483992242A
00000071732910202112580134436343454756
0000007183291020211300012398929754487C
00000071932910202113000129233633472E38
00000072032910202113000123192736567DEC
00000072132910202113010212836394260C44
0000007223291020211301020068924733F8CA
0000007233291020211302013222202345ED56
00000072432910202113020134955573411AA6
0000007253291020211305012228272762CFE1
00000072632910202113580134436343457A61
0000007273291020211400012923363347838D
000000728329102021140201322220234542EE
0000007293291020211655012247286463325B
0000007303291020211655012398929754A259
0000007313291020211655013371025348FD0D
00000073232910202116550125119958856CA5
0000007333291020211655026804504001C0EB
0000007343291020211655014980672279DFB2
0000007353291020211655020728971741B6CE
000000736329102021165601322220234573B0
0000007373291020211656012923363347D29D
0000007383291020211656021283639426FF6C
000000739329102021165601222827276204C3
0000007403291020211657013443634345280C
0000007413291020211657012319273656D75B
00000074232910202116580200689247337A2D
0000007433291020211658020770728639EA72
000000744329102021165801349555734157E4
0000007453291020211658012464483992DAB6
00000074663110202111280220B5
0000007473011120210755012923363347D219
00000074830111202107550123989297545ED5
00000074930111202107550133710253480181
000000750301112021075501344363434512BF
0000007513011120210755026804504001524F
0000007523011120210755020770728639BDF2
0000007533011120210755012464483992F872
00000075430111202107560122472864633CD5
00000075530111202107570134955573418AA2
00000075630111202107570200689247339ACC
000000757301112021075702128363942626A1
00000075830111202107570122282727623786
0000007593011120210800012319273656479D
00000076030111202108010132222023455C66
000000761301112021080201498067227914E6
00000076230111202108020207289717413579
000000763301112021080701251199588576F9
0000007643011120211059012247286463129E
000000765301112021105901222827276252A4
0000007663011120211100020770728639ABDB
0000007673011120211100020728971741A385
00000076830111202111000149806722792071
0000007693011120211100012511995885E622
00000077030111202111000268045040016CA7
0000007713011120211101013371025348F0A0
00000077230111202111580122472864633542
0000007733011120211159012228272762301B
0000007743011120211200012464483992FC9A
0000007753011120211200020770728639B91A
00000077630111202112000149806722793CBA
00000077730111202112000133710253488FC3
0000007783011120211200012511995885BC00
0000007793011120211200026804504001104E
00000078030111202112010123989297548DD3
00000078130111202112010207289717410882
0000007823011120211201012319273656FCA7
0000007833011120211201021283639426C86C
0000007843011120211201020068924733AD24
0000007853011120211204013495557341B567
0000007863011120211300012923363347754C
000000787301112021130001344363434579A9
0000007883011120211300012464483992310F
0000007893011120211300012319273656C017
0000007903011120211300013222202345B443
00000079130111202113010123989297549A28
0000007923011120211303020068924733455D
0000007933011120211303021283639426F930
0000007943011120211304013495557341A29C
00000079530111202114000134436343455CBB
000000796301112021140001292336334718BD
0000007973011120211400013222202345B990
00000079830111202117550122472864630797
00000079930111202117550149806722795D73
00000080030111202117550207289717417299
0000008013011120211755012398929754F7C8
0000008023011120211755013371025348E07F
0000008033011120211755013443634345D58A
00000080430111202117550132222023450D06
000000805301112021175501246448399202E0
0000008063011120211756021283639426EC14
00000080730111202117560129233633472B6D
00000080830111202117570122282727621431
00000080930111202117570123192736567734
00000081030111202117570200689247337538
0000008113011120211757020770728639E567
0000008123011120211757013495557341C937
000000813301112021175801251199588567C6
000000814301112021175802680450400112AD
000000815303112021075501246448399275B4
0000008163031120210756013371025348C948
0000008173031120210756013443634345FCBD
00000081830311202107560207707286395DFA
0000008193031120210756026804504001FAA4
00000082030311202107560200689247336DC3
0000008213031120210756021283639426D1AE
000000822303112021075701349555734194AF
0000008233031120210757013222202345BA7A
00000082430311202107570125119958858E48
0000008253031120210757012398929754A436
00000082630311202107580122282727627715
0000008273031120210758012923363347E7A2
000000828303112021080001231927365680B5
0000008293031120210807012247286463C5E3
0000008303031120210808020728971741BD83
0000008313031120210808014980672279D4FF
0000008323031120211058012247286463CF5D
0000008333031120211100020770728639D7F9
0000008343031120211100012511995885A9AD
000000835303112021110001337102534870E6
0000008363031120211100026804504001E161
00000083730311202111000122282727623DC3
00000083830311202111560122472864639EDE
0000008393031120211200012398929754C29D
0000008403031120211200012228272762C190
0000008413031120211200020770728639160D
00000084230311202112000124644839921B6E
000000843303112021120001337102534820D4
00000084430311202112000123192736569F32
00000084530311202112000268045040018CF4
00000084630311202112000125119958856859
00000084730311202112020134955573418D3C
0000008483031120211300012464483992CEDC
00000084930311202113000134436343456CF2
000000850303112021130001292336334746DC
00000085130311202113000123989297542098
0000008523031120211301012319273656B8EE
0000008533031120211305013222202345EFDC
0000008543031120211306013495557341D789
000000855303112021140001292336334703EC
000000856303112021140001344363434547EA
0000008573031120211405013222202345068D
0000008583031120211755012247286463F844
0000008593031120211755026804504001C8BD
00000086030311202117550133710253481DDE
0000008613031120211755021283639426E3B7
00000086230311202117550207707286392B07
0000008633031120211756013443634345AF6D
00000086430311202117570132222023453282
000000865303112021175801239892975498D8
0000008663031120211758012511995885FA45
00000086730311202118000124644839926699
00000086830311202118000129233633478EBB
00000086930311202118010122282727625B6F
000000870303112021180101349555734162EB
00000087130311202118010200689247333A66
00000087230311202118010123192736565642
00000087330311202118020207289717412521
00000087430311202118020149806722799578
000000875304112021075501246448399221F0
000000876304112021075501337102534852A9
0000008773041120210755013443634345675C
00000087830411202107560129233633474E94
0000008793041120210756012511995885AECF
000000880304112021075601222827276280ED
00000088130411202107570132222023455875
00000088230411202107570123989297547B9E
00000088330411202107580122472864630C05
000000884304112021075902006892473397BB
00000088530411202107590212836394262BD6
00000088630411202107590134955573412BB4
00000088730411202108000123192736566CB0
00000088830411202108000207289717413AFE
000000889304112021080102077072863977C3
0000008903041120210801026804504001F656
00000089130411202108090149806722793B70
000000892304112021105801224728646365B1
00000089330411202110580125119958855567
0000008943041120211100026804504001036E
0000008953041120211100020728971741000F
000000896304112021110002077072863940B2
000000897304112021110001337102534892E9
0000008983041120211100014980672279CB18
0000008993041120211106012228272762F2CC
0000009003041120211157012247286463D83E
0000009013041120211200013371025348322B
0000009023041120211200012398929754259C
00000090330411202112000125119958850FE2
00000090430411202112000124644839929857
0000009053041120211200014980672279BCF5
00000090630411202112000123192736568DCD
0000009073041120211200021283639426B906
00000090830411202112010134955573415E6C
00000090930411202112010207707286393ADF
0000009103041120211201020728971741144A
0000009113041120211201026804504001172B
0000009123041120211201012228272762836A
0000009133041120211202020068924733A76C
00000091430411202113000129233633478D06
00000091530411202113000124644839928FAC
00000091630411202113000134436343456561
000000917304112021130001322220234564C8
0000009183041120211300012319273656DCDF
00000091930411202113000123989297544929
00000092030411202113010212836394260D11
00000092130411202113010134955573414590
00000092230411202113020200689247339A5B
0000009233041120211400012923363347BF7F
0000009243041120211400013222202345C777
0000009253041120211400013443634345C6DE
00000092630411202117550133710253489EE7
0000009273041120211755013443634345AB12
0000009283041120211755026804504001016A
00000092930411202117560129233633472EBB
00000093030411202117560123989297546E34
0000009313041120211756012247286463D8FD
0000009323041120211757013222202345A4DD
0000009333041120211758021283639426AFBA
00000093430411202117590200689247338F91
0000009353041120211759013495557341D71C
00000093630411202117590207289717415F73
00000093730411202117590122282727622CD1
000000938304112021175902077072863911C4
0000009393041120211800012464483992C36B
00000094030411202118000123192736566BEC
00000094130411202118010125119958853D66
0000009423051120210755026804504001C85F
000000943305112021075501344363434588AF
0000009443051120210755013371025348647F
0000009453051120210755012228272762CDD8
0000009463051120210755012464483992BB47
00000094730511202107560132222023457B04
000000948305112021075601292336334730A1
000000949305112021075901239892975497B7
00000095030511202107590207707286399012
0000009513051120210800013495557341638E
000000952305112021080002128363942663EC
00000095330511202108000123192736565727
0000009543051120210800020068924733AAC5
0000009553051120210802012511995885BB4C
00000095630511202108050122472864630971
0000009573051120210809020728971741987F
00000095830511202108090149806722791B8B
0000009593051120211100012228272762C290
00000096030511202111000133710253486730
0000009613051120211100026804504001BE54
000000962305112021110002077072863951E9
0000009633051120211100012511995885F698
00000096430511202111000122472864631F6B
00000096530511202111540122472864633063
00000096630511202111570124644839926502
00000096730511202112000207707286398F6B
0000009683051120211200026804504001C2BD
00000096930511202112000133710253481BD9
0000009703051120211200012511995885E459
0000009713051120211200012319273656F7B0
00000097230511202112010123989297546FC6
0000009733051120211203012228272762BF92
0000009743051120211257012464483992DBA2
00000097530511202113000134436343459BBC
0000009763051120211300012923363347DFBA
00000097730511202113000123192736568069
0000009783051120211300013222202345387E
00000097930511202113010123989297541615
00000098030511202114000134436343451F8E
00000098130511202114000132222023451E27
0000009823051120211400012923363347F7E9
0000009833051120211655021283639426BB43
00000098430511202116550133710253489C0F
0000009853051120211655026804504001456B
0000009863051120211655020770728639AAD6
0000009873051120211655013443634345E119
0000009883051120211655012247286463D7F9
00000098930511202116560200689247331FA4
00000099030511202116570134955573412481
0000009913051120211657012464483992A9D3
00000099230511202116580132222023452F84
0000009933051120211658012398929754448C
0000009943051120211659012511995885F2B4
0000009953051120211700012319273656875C
0000009963051120211700012923363347906C
000000997305112021170001222827276200DB
00000099830511202117000149806722795CEC
000000999305112021170102072897174170F3
00000100030811202107550123989297544ADA
00000100130811202107550129233633472C9E
0000010023081120210755013371025348F10C
000001003308112021075501222827276258AB
0000010043081120210755012319273656E28B
00000100530811202107550134436343451DDC
000001006308112021075601246448399238B4
0000010073081120210756026804504001760B
000001008308112021075701251199588575AE
000001009308112021075701322220234598B9
00000101030811202107570207707286395875
0000010113081120210758012247286463A2E1
00000101230811202108050149806722792264
000001013308112021080602072897174184BD
0000010143081120210807013495557341D877
0000010153081120210814020068924733343E
0000010163081120210814021283639426C0B0
00000101730811202111000207707286391FB2
00000101830811202111000268045040015264
00000101930811202111000122282727628EC6
0000010203081120211100012247286463C2FB
00000102130811202111000133710253488707
000001022308112021110601251199588599C4
0000010233081120211111014980672279EEFE
0000010243081120211156021283639426E107
00000102530811202111570200689247331809
00000102630811202112000207707286396F5C
0000010273081120211200012228272762B8C1
0000010283081120211200013371025348FBEE
0000010293081120211200026804504001228A
00000103030811202112000124644839924AFE
0000010313081120211201012247286463DDBA
0000010323081120211202012398929754EC35
00000103330811202112020134955573410589
0000010343081120211206012511995885B6A2
000001035308112021121001498067227984FB
00000103630811202112570200689247330AC8
0000010373081120211257021283639426B6A5
0000010383081120211300013443634345D9E0
0000010393081120211300012923363347D505
00000104030811202113000132222023452DB7
00000104130811202113000124644839922251
0000010423081120211300013495557341E7E0
0000010433081120211302012398929754849A
00000104430811202113150123192736567920
0000010456081120211333023F27
000001046308112021140001344363434521CD
00000104730811202114000129233633472D28
0000010483081120211400013222202345668D
0000010493081120211755013443634345420B
00000105030811202117550133710253485135
000001051308112021175501224728646314C9
00000105230811202117550268045040016CD3
00000105330811202117560122282727627FD4
0000010543081120211756020770728639716C
00000105530811202117560123192736566995
00000105630811202117570129233633473BC6
0000010573081120211757012464483992396C
00000105830811202117570123989297541B6B
00000105930811202117570125119958853115
00000106030811202117580132222023451157
0000010613081120211800013495557341EDCE
0000010623081120211800020068924733FDA0
000001063308112021180002128363942641CD
00000106430811202118010149806722793CFA
00000106530811202118010207289717415586
00000106630911202107550129233633474385
00000106730911202107550134436343454F60
000001068309112021075501246448399207C6
00000106930911202107550133710253483C7C
0000010703091120210755026804504001C3D3
0000010713091120210755012319273656D015
000001072309112021075601322220234505CC
00000107330911202107560122282727629837
0000010743091120210757020068924733EFD2
0000010753091120210758013495557341760D
0000010763091120210758021283639426766F
0000010773091120210800012247286463B3D7
00000107830911202108000125119958856989
0000010793091120210800020770728639CEF8
000001080309112021080201239892975497FF
0000010813091120210807014980672279977D
0000010823091120210807020728971741B6E2
000001083309112021105901222827276248D4
00000108430911202111000207289717418452
00000108530911202111000207707286398C0C
0000010863091120211100012511995885639E
0000010873091120211100026804504001CFD0
000001088309112021110001224728646315A1
00000108930911202111000149806722794F45
00000109030911202111010133710253489F94
00000109130911202111580122472864631295
00000109230911202111580200689247335D8E
0000010933091120211159012228272762F34E
0000010943091120211200021283639426FA1C
0000010953091120211200012511995885715F
000001096309112021120002680450400195F2
000001097309112021120002077072863932AC
0000010983091120211200020728971741D07A
0000010993091120211200012398929754552B
000001100309112021120001246448399234CB
0000011013091120211201014980672279550A
00000110230911202112010134955573411878
000001103309112021120101337102534802F1
0000011043091120211201012319273656BD17
0000011053091120211300012923363347095B
00000110630911202113000134436343454D5D
00000110730911202113000212836394262AA0
0000011083091120211300012464483992A99A
00000110930911202113000123989297546115
0000011103091120211300012319273656D228
000001111309112021130001322220234580B7
0000011123091120211301013495557341A3E2
000001113309112021130202006892473334CA
0000011143091120211400012923363347C8CB
0000011153091120211400013443634345C42E
00000111630911202114000132222023458D64
00000111730911202117550133710253483076
0000011183091120211755013443634345EF0B
0000011193091120211755026804504001AFFB
00000112030911202117550212836394262890
0000011213091120211755013222202345E2A5
00000112230911202117550129233633470B6B
000001123309112021175501246448399209C1
000001124309112021175501224728646302C3
00000112530911202117560123192736564238
000001126309112021175601222827276269DE
0000011273091120211756012398929754334C
0000011283091120211756020770728639F8AA
00000112930911202117560125119958855FDB
0000011303091120211757014980672279FA20
00000113130911202118000200689247331843
0000011323091120211800013495557341082D
00000113330911202118010207289717418DC2
00000113431011202107530122472864637AD9
000001135310112021075501344363434529DA
0000011363101120210755012464483992C317
00000113731011202107550125119958858D87
0000011383101120210755026804504001CB41
00000113931011202107550133710253481225
0000011403101120210755012923363347DECB
0000011413101120210756013222202345B043
00000114231011202107570122282727622038
0000011433101120210757021283639426DB97
00000114431011202107570134955573414A33
0000011453101120210758020068924733D3EC
00000114631011202107580207707286390B50
000001147310112021075901231927365656CA
0000011483101120210810012398929754C5FA
00000114931011202110580122472864630AAD
0000011503101120211059012228272762293F
0000011513101120211100014980672279F981
0000011523101120211100020728971741D81E
0000011533101120211100020770728639D040
0000011543101120211100013371025348DB3E
0000011553101120211100026804504001025A
0000011563101120211101012511995885A394
00000115731011202111570122472864639AED
0000011583101120211158014980672279EBD3
00000115931011202111580212836394260AA2
0000011603101120211159012319273656770D
00000116131011202111590122282727621408
00000116231011202111590207289717412F49
0000011633101120211200013495557341C41D
0000011643101120211200012511995885729B
0000011653101120211200026804504001DED5
00000116631011202112000207707286393168
0000011673101120211200013371025348E333
00000116831011202112000124644839923201
0000011693101120211201012398929754BFED
00000117031011202112020200689247334BD3
000001171310112021125702006892473321B8
00000117231011202113000129233633475C1E
000001173310112021130001344363434550FB
00000117431011202113000124644839922BF0
0000011753101120211300012319273656DAE8
0000011763101120211301012398929754429E
00000117731011202113010132222023452996
0000011783101120211303012511995885A4CF
00000117931011202113030212836394262F8C
000001180310112021130301349555734195A2
00000118131011202114000132222023450C45
0000011823101120211400013443634345450F
0000011833101120211755013443634345CC41
00000118431011202117550133710253482091
0000011853101120211755012923363347B5E0
00000118631011202117550123989297549B47
0000011873101120211755026804504001B116
00000118831011202117550124644839921521
0000011893101120211756021283639426B336
00000119031011202117560122282727626E52
000001191310112021175602006892473385F1
0000011923101120211756013495557341959F
0000011933101120211756013222202345BB4A
00000119431011202117580125119958850B49
00000119531011202117590122472864637EFC
00000119631011202118000207289717413EC9
000001197310112021180001498067227957B5
0000011983101120211800012319273656C4E6
0000011993101120211800020770728639DC1F
0000012003111120210754012247286463160A
00000120131111202107550134436343458F01
000001202311112021075501246448399265CC
00000120331111202107550132222023456A2A
00000120431111202107550133710253482B32
0000012053111120210755012511995885F279
000001206311112021075502680450400116D4
0000012073111120210755012923363347F6A0
00000120831111202107550122282727628C9F
0000012093111120210756020068924733A899
000001210311112021075701349555734193BC
0000012113111120210757021283639426DB3D
0000012123111120210757020770728639138D
000001213311112021080201231927365692AC
0000012143111120210802012398929754DE7F
0000012153111120210807014980672279DEFD
0000012163111120210807020728971741FF62
00000121731111202110580122282727624437
00000121831111202111000157098857073598
0000012193111120211100012511995885FD31
00000122031111202111000268045040015D78
0000012213111120211100020770728639FA26
0000012223111120211100013371025348609E
0000012233111120211102012247286463AFA4
000001224311112021115801222827276231E3
000001225311112021120001251199588583D5
00000122631111202112000268045040016778
0000012273111120211200020770728639C026
0000012283111120211200013371025348F8F5
0000012293111120211200012464483992C34F
0000012303111120211200012319273656149C
0000012313111120211201012247286463DEA1
0000012323111120211201012398929754208B
00000123331111202112020134955573410692
00000123431111202113000134436343457890
00000123531111202113000129233633477475
00000123631111202113000124644839923E3C
0000012373111120211300012319273656CF24
0000012383111120211301013495557341B0E4
00000123931111202113010123989297545958
00000124031111202114000129233633475B77
00000124131111202114000134436343455792
00000124231111202114000132222023451ED8
00000124331111202115000132222023451C45
0000012443111120211755012511995885A3A4
00000124531111202117550268045040010FEA
0000012463111120211755020770728639E057
0000012473111120211755013371025348320C
0000012483111120211755013443634345ED71
00000124931111202117550122472864633119
0000012503111120211756021283639426CF83
000001251311112021175602006892473373EE
00000125231111202117560134955573416380
0000012533111120211757012923363347057A
00000125431111202117570132222023457D72
00000125531111202117570124644839927294
0000012563111120211757012228272762040B
0000012573111120211757012319273656670E
00000125831111202117570123989297541870
0000012593111120211758014980672279996E
0000012603121120210751012247286463868D
0000012613121120210753012398929754BA82
0000012623121120210755013371025348225E
000001263312112021075501344363434517AB
00000126431211202107550125119958858E51
0000012653121120210755026804504001221F
00000126631211202107550124644839922443
00000126731211202107550132222023452BA5
0000012683121120210756013495557341205D
000001269312112021075602128363942668DC
0000012703121120210756020068924733F27A
0000012713121120210757012923363347606C
0000012723121120210757012228272762B838
00000127331211202107580123192736561A6F
00000127431211202107590207707286399ED0
00000127531211202108050149806722798472
00000127631211202108060207289717416A48
0000012773121120211100014980672279ADC2
00000127831211202111000122472864631DAE
00000127931211202111000207289717418257
0000012803121120211100013371025348069C
0000012813121120211100020770728639D4C7
00000128231211202111000268045040013B7A
00000128331211202111000125119958859734
0000012843121120211101012228272762D7FF
00000128531211202111560149806722792D8C
00000128631211202111570207289717414970
000001287312112021115901224728646352B8
0000012883121120211200013371025348D614
0000012893121120211200012464483992EDAE
0000012903121120211200021283639426A2D7
00000129131211202112000122282727625978
0000012923121120211200012511995885CD16
0000012933121120211200012319273656DEFF
0000012943121120211201020068924733667E
0000012953121120211201020770728639F621
0000012963121120211201026804504001199C
00000129731211202112010134955573417610
0000012983121120211202012398929754BA81
0000012993121120211300012923363347F8FF
0000013003121120211300012464483992533A
0000013013121120211300013443634345F114
0000013023121120211300021283639426DE0A
0000013033121120211300012319273656EAC1
00000130431211202113000200689247331723
00000130531211202113010134955573410ACD
00000130631211202113010132222023456CFB
0000013073121120211302012398929754C856
0000013083121120211400013443634345164F
00000130931211202114000129233633471AAA
0000013103121120211401013222202345D82F
00000131131211202116550133710253488EA2
0000013123121120211655013443634345F3B4
0000013133121120211655026804504001B344
0000013143121120211655020770728639CD3F
0000013153121120211655012398929754EC51
00000131631211202116570129233633474830
0000013173121120211658013222202345284F
0000013183121120211658012464483992CD21
0000013193121120211659012319273656795A
0000013203121120211700013495557341C377
00000132131211202117000200689247339BFA
00000132231211202117000212836394266F74
000001323312112021170301498067227941A0
0000013243121120211703020728971741F1F9
0000013253121120211703012511995885F2B7
00000132631211202117030122472864638A82
0000013273121120211703012228272762CAB8
0000013283161120210746012398929754EBE0
000001329316112021075201224728646323E5
000001330316112021075402072897174115BC
000001331316112021075501498067227939A3
0000013323161120210755013371025348C239
0000013333161120210755013443634345F7CC
00000133431611202107550124644839928CC7
00000133531611202107550132222023458321
0000013363161120210757012319273656139B
00000133731611202107570129233633474C48
00000133831611202107570122282727623677
00000133931611202107580200689247331C86
00000134031611202107580134955573411D94
00000134131611202107580212836394265515
0000013423161120210802026804504001CE10
0000013433161120210802012511995885625E
00000134431611202108030207707286395969
0000013453161120211058012247286463AFF5
0000013463161120211058012228272762A72C
000001347316112021110002680450400158EC
0000013483161120211100020770728639153A
0000013493161120211100012511995885B24B
000001350316112021110002072897174197CE
0000013513161120211100013371025348E1AA
00000135231611202111000149806722791A30
00000135331611202111560207289717417AE3
0000013543161120211156014980672279CABA
0000013553161120211159012247286463510C
000001356316112021120002128363942625C3
00000135731611202112000134955573416D42
0000013583161120211200020770728639E379
00000135931611202112000200689247337326
00000136031611202112000133710253489144
0000013613161120211200012464483992AAFE
00000136231611202112000123192736561305
00000136331611202112010122282727623563
000001364316112021120102680450400130E4
00000136531611202112010125119958859CAA
0000013663161120211204012398929754BEF9
0000013673161120211300013443634345D368
0000013683161120211300013495557341BAFD
0000013693161120211300021283639426F27C
000001370316112021130001292336334713CE
0000013713161120211300020068924733C4BB
0000013723161120211300012464483992F5E6
0000013733161120211301012319273656419D
0000013743161120211301013222202345CA27
0000013753161120211304012398929754E1E1
000001376316112021140001344363434512F8
00000137731611202114000129233633471E1D
000001378316112021140101322220234510DB
0000013793161120211755013371025348E8AA
0000013803161120211755012511995885C34E
00000138131611202117550268045040016F00
00000138231611202117550123989297540DB2
0000013833161120211755013443634345CB72
000001384316112021175501322220234513FE
00000138531611202117550124644839921C18
0000013863161120211756021283639426F2EC
0000013873161120211756012247286463E518
0000013883161120211757012923363347361F
0000013893161120211757012228272762A6A8
0000013903161120211758020068924733AA92
0000013913161120211758013495557341F21F
00000139231611202117590207707286399B2C
0000013933161120211800014980672279C140
000001394316112021180001231927365661BE
0000013953161120211800020728971741DD78
0000013963171120210752012247286463949D
00000139731711202107530123989297546737
0000013983171120210755013443634345C414
0000013993171120210755012464483992663A
00000140031711202107550133710253482F97
0000014013171120210755012923363347BAE6
00000140231711202107550268045040011271
0000014033171120210755012511995885BE3F
000001404317112021075501231927365674F3
0000014053171120210756020770728639A3AF
00000140631711202107560122282727623CD1
0000014073171120210756013222202345A12A
0000014083171120210757020068924733D4F8
00000140931711202107570134955573418C75
0000014103171120210757021283639426E23F
00000141131711202108020207289717415F8B
0000014123171120210805014980672279B41C
0000014133171120211059012247286463E9AA
000001414317112021105901222827276270B5
0000014153171120211100014980672279A00B
00000141631711202111000207289717418194
0000014173171120211100013371025348F7F0
0000014183171120211100020770728639CF23
00000141931711202111000125119958856852
0000014203171120211100026804504001C81B
0000014213171120211102012319273656511B
00000142231711202111590149806722792218
00000142331711202111590207289717414B64
0000014243171120211200012228272762CA3B
0000014253171120211200013371025348639C
00000142631711202112000122472864636E83
0000014273171120211200012464483992BCA4
00000142831711202112000268045040011893
0000014293171120211200020770728639BFCD
00000143031711202112010125119958857B14
0000014313171120211201021283639426F057
000001432317112021120102006892473304D9
00000143331711202112010134955573415C54
0000014343171120211202012398929754A368
000001435317112021120301231927365673FD
0000014363171120211300013443634345A510
0000014373171120211300012923363347A9F5
000001438317112021130001246448399241D7
00000143931711202113000132222023454E31
0000014403171120211302012398929754F660
00000144131711202113020134955573411FDC
00000144231711202113020212836394261FBE
0000014433171120211302020068924733A3D3
0000014443171120211400013443634345FF56
000001445317112021141001292336334788D2
0000014463171120211410013222202345611C
0000014473171120211755026804504001D26A
0000014483171120211755013371025348E186
0000014493171120211755013443634345D473
0000014503171120211757012398929754BEBE
0000014513171120211757020068924733A3EE
00000145231711202117570212836394265760
0000014533171120211758013495557341DEB3
0000014543171120211758012923363347240F
0000014553171120211758012228272762B4B8
000001456317112021175801251199588520D6
0000014573171120211800012319273656E173
000001458317112021180001224728646384A5
0000014593171120211800020770728639BF63
0000014603171120211803014980672279B182
00000146131711202118030124644839929520
0000014623181120210755012398929754D83E
0000014633181120210755013371025348876A
00000146431811202107550134436343456BBA
0000014653181120210755012923363347675F
00000146631811202107550124644839922D16
0000014673181120210755012319273656DC0E
00000146831811202107550132222023456419
0000014693181120210755014980672279E33C
0000014703181120210756026804504001CC2E
0000014713181120210756012228272762108C
00000147231811202107570122472864635D36
0000014733181120210759020770728639E2C1
00000147431811202107590134955573415F57
000001475318112021075902006892473307DA
0000014763181120210800021283639426647B
0000014773181120210804012511995885EA95
00000147831811202111000268045040018863
00000147931811202111000149806722794E1F
00000148031811202111000122282727620A0F
0000014813181120211100020770728639DD92
0000014823181120211100013371025348472A
00000148331811202111020122472864638810
00000148431811202111030125119958852480
0000014853181120211159020068924733B897
00000148631811202112000149806722792AD1
000001487318112021120001337102534899A8
00000148831811202112000212836394268D49
0000014893181120211200013495557341C5C8
00000149031811202112000124644839926E51
000001491318112021120002680450400120EE
0000014923181120211200020770728639CF53
000001493318112021120101231927365692C9
0000014943181120211201012398929754DE1A
0000014953181120211202012247286463A776
0000014963181120211206012228272762AA02
00000149731811202113000129233633471B22
0000014983181120211300012464483992F300
0000014993181120211300013443634345512E
00000150031811202113000212836394269FBC
0000015013181120211300012319273656AB77
0000015023181120211300013222202345B10B
00000150331811202113010123989297549F60
0000015043181120211303020068924733D1D3
00000150531811202113040134955573414356
00000150631811202114000129233633475516
0000015073181120211400013222202345F43B
00000150831811202114000134436343451F1A
0000015093181120211755012247286463E65D
0000015103181120211755013371025348856A
00000151131811202117550268045040015C0E
0000015123181120211755013443634345541D
000001513318112021175502128363942633E0
000001514318112021175502006892473356A8
00000151531811202117550123989297544BF8
00000151631811202117560134955573412502
00000151731811202117560132222023450BD7
00000151831811202117570129233633470511
00000151931811202117570149806722798F78
0000015203181120211757012464483992A7DD
000001521318112021175701222827276299A1
0000015223181120211758020770728639C78D
00000152331811202117590123192736569A17
000001524319112021075301224728646380DF
0000015253191120210755013443634345D3DC
00000152631911202107550123989297545DFF
000001527319112021075501337102534802AB
0000015283191120210755013222202345701E
000001529319112021075601251199588552AC
0000015303191120210756026804504001D829
00000153131911202107560125119958857467
000001532319112021075701292336334799BC
0000015333191120210757012228272762090B
0000015343191120210757020728971741A38C
00000153531911202107580149806722790BA2
000001536319112021075801246448399267E3
00000153731911202107590207707286396700
0000015383191120210802020068924733003E
0000015393191120210802021283639426BC53
00000154031911202108030123192736569464
00000154131911202111000149806722790387
0000015423191120211100013371025348F81D
0000015433191120211100012247286463BDE1
0000015443191120211100026804504001543D
0000015453191120211100012511995885F873
000001546319112021110002077072863917E1
00000154731911202111000207289717411FBF
0000015483191120211101012228272762C3F6
000001549319112021115702006892473321FA
0000015503191120211157021283639426BB5C
0000015513191120211159014980672279DE1C
00000155231911202112000268045040017B5B
0000015533191120211200020770728639DC05
0000015543191120211200013371025348D77B
00000155531911202112000122472864639287
00000155631911202112000124644839920843
000001557319112021120001251199588546D3
0000015583191120211200012319273656BFB2
000001559319112021120101222827276299D4
000001560319112021120202072897174129D4
0000015613191120211202012398929754AC85
0000015623191120211300012923363347A618
0000015633191120211300012464483992A4B2
00000156431911202113000132222023457271
000001565319112021130001344363434573D8
0000015663191120211300012319273656C46C
0000015673191120211302012398929754DB5C
00000156831911202113020200689247332C84
000001569319112021130202128363942690E9
0000015703191120211400012923363347830A
00000157131911202114000134436343458FEF
0000015723191120211400013222202345C6A5
00000157331911202116550134436343454CDF
0000015743191120211655021283639426F207
00000157531911202116550133710253480C6E
00000157631911202116550122472864630171
0000015773191120211655012398929754B7B8
0000015783191120211657020068924733CAA6
00000157931911202116570207707286395AF9
00000158031911202116580124644839922C84
00000158131911202116580132222023452362
0000015823191120211658012319273656391E
000001583319112021165901292336334723AE
00000158431911202116590268045040011AFF
0000015853191120211701012228272762E53F
0000015863191120211702012511995885BEF4
0000015873221120210745012247286463FF88
0000015883221120210755013443634345B209
000001589322112021075501337102534887FC
0000015903221120210756013222202345F6AF
00000159132211202107560129233633475782
00000159232211202107560122282727628FD6
00000159332211202107570123989297549027
0000015943221120210757012464483992818D
0000015953221120210800012319273656638B
000001596322112021080002680450400138AE
0000015973221120210801020770728639DA93
000001598322112021080201251199588558CF
00000159932211202108050212836394261984
000001600322112021080502006892473345AE
0000016013221120211100020770728639B4A2
00000160232211202111000133710253482E1A
0000016033221120211100026804504001F77E
00000160432211202111000125119958858215
00000160532211202111000122282727625E98
000001606322112021110401224728646353EC
000001607322112021120001251199588585B2
0000016083221120211200026804504001C374
00000160932211202112000133710253481A10
0000016103221120211200020770728639EE80
0000016113221120211200012228272762391D
00000161232211202112000212836394268A51
00000161332211202112000122472864639DA5
00000161432211202112000200689247334378
00000161532211202112010124644839927FA5
0000016163221120211201012319273656C65E
00000161732211202112020123989297549C0D
0000016183221120211300013443634345947F
0000016193221120211300012923363347989A
000001620322112021130001322220234535B0
00000162132211202113010124644839927F35
0000016223221120211301012319273656C6CE
0000016233221120211301021283639426F205
0000016243221120211301020068924733974D
000001625322112021130201239892975445B8
000001626322112021140001344363434539CA
0000016273221120211400012923363347352F
00000162832211202114000132222023457E8A
000001629622112021140402C21E
000001630622112021150903937C
0000016316221120211509044BBF
0000016323221120211755012247286463E84C
00000163332211202117550134436343453424
0000016343221120211755013371025348D8F4
000001635322112021175501322220234540C9
0000016363221120211755026804504001E512
000001637322112021175601239892975400E6
0000016383221120211758012464483992A6D0
0000016393221120211758020068924733DF6E
00000164032211202117580212836394263A9C
0000016413221120211758020770728639BACF
0000016423221120211758012319273656EAD5
0000016433221120211758012511995885F93C
00000164432211202117590129233633478521
00000164532211202117590122282727621596
00000164632311202107540122472864639BF4
000001647323112021075501344363434502FF
0000016483231120210755012511995885A8A8
000001649323112021075501337102534871E3
0000016503231120210755012398929754087C
0000016513231120210755012464483992C0F3
0000016523231120210755020770728639CD90
00000165332311202107550268045040016ACE
000001654323112021075801222827276224DD
00000165532311202108000123192736569594
00000165632311202108020129233633470862
0000016573231120210804020068924733507C
00000165832311202108040212836394260699
00000165932311202110090132222023450859
00000166032311202111000133710253487CA6
0000016613231120211100012228272762D501
00000166232311202111000207707286394A7F
0000016633231120211100012511995885ED0E
00000166432311202111000268045040019865
0000016653231120211101012247286463EDFF
0000016663231120211102012319273656E5E7
0000016673231120211200013371025348EAC7
0000016683231120211200021283639426FE26
0000016693231120211200020068924733424B
00000167032311202112000124644839921D3E
00000167132311202112010122282727626621
0000016723231120211202012247286463A15D
00000167332311202112020123989297541794
0000016743231120211202020770728639EFDF
00000167532311202112030125119958850DCD
0000016763231120211203026804504001E960
000001677323112021120401231927365630AE
00000167832311202113000134436343458E20
000001679323112021130001292336334782C5
000001680323112021130001246448399272C0
00000168132311202113000132222023457D26
0000016823231120211300021283639426FFF0
0000016833231120211300020068924733439D
00000168432311202113020123989297540D2E
000001685323112021140001344363434539BF
00000168632311202114000129233633477DB9
0000016873231120211400013222202345DC94
0000016883231120211755026804504001FE0B
0000016893231120211755013443634345BEFB
0000016903231120211755013371025348ADC5
0000016913231120211755012398929754F291
00000169232311202117550122472864630CBB
0000016933231120211756012923363347BFF2
0000016943231120211756012464483992647D
00000169532311202117560132222023456B9B
000001696323112021175601231927365671E7
000001697323112021175601222827276212E2
00000169832311202117570207707286396A94
0000016993231120211757012511995885CDE5
00000170032311202117580212836394262E9B
00000170132311202118070200689247338AB2
00000170232411202107550134436343456544
000001703324112021075501337102534850B1
000001704324112021075501322220234511A9
00000170532411202107550124644839921E4F
0000017063241120210755012247286463848B
0000017073241120210756012398929754FDE7
0000017083241120210756012923363347712B
0000017093241120210756012228272762E19C
000001710324112021075802077072863994FB
0000017113241120210758012511995885338A
0000017123241120210800012319273656BACC
000001713324112021080202077072863928F3
00000171432411202108020200689247336189
0000017153241120210802021283639426DDE4
0000017163241120210802020728971741B16B
00000171732411202109170268045040012759
0000017183241120211056026804504001F8EB
000001719324112021105601251199588554A5
0000017203241120211056020770728639FFD3
000001721324112021110102072897174115BD
0000017223241120211101012247286463C2A7
0000017233241120211101012228272762829D
0000017243241120211111013371025348897E
000001725324112021115602680450400167B7
0000017263241120211156012511995885831A
00000172732411202111570207707286396108
00000172832411202111590122472864633477
0000017293241120211159020728971741AB8E
000001730324112021120002128363942682F1
00000173132411202112000200689247333E9C
00000173232411202112000124644839920FC1
0000017333241120211200012319273656FED9
0000017343241120211201012228272762019A
00000173532411202112010123989297545B08
000001736324112021121101337102534837DE
00000173732411202112570124644839927EAA
00000173832411202112570129233633479688
000001739324112021125701322220234537A5
00000174032411202113000134436343458DA3
0000017413241120211300021283639426EA5E
00000174232411202113000200689247331ED0
00000174332411202113000123192736563A17
000001744324112021130101239892975433A7
00000174532411202113570132222023455100
0000017463241120211357012923363347B8CE
00000174732411202114000134436343458070
0000017483241120211750012247286463D371
00000174932411202117550134436343454FD7
00000175032411202117550133710253485CE9
000001751324112021175501239892975403BD
0000017523241120211757012923363347A7DC
000001753324112021175701322220234506F1
00000175432411202117570123192736568D4B
0000017553241120211757021283639426B980
0000017563241120211758012228272762CB9E
0000017573241120211800020068924733F271
000001758324112021180102072897174169FA
00000175932411202118010125119958856AB4
00000176032411202118010124644839922823
0000017613241120211801026804504001669C
00000176232411202118010207707286398921
0000017633251120210755012464483992DD35
000001764325112021075501292336334706BA
0000017653251120210755013222202345A797
0000017663251120210755013443634345EEDD
0000017673251120210755013371025348DB28
0000017683251120210755021283639426CFC9
0000017693251120210757026804504001CE63
000001770325112021075701251199588544E6
0000017713251120210757012228272762986B
00000177232511202107570207707286390715
0000017733251120210758012398929754E729
0000017743251120210759012319273656EE99
0000017753251120210801012247286463B38B
000001776625112021080202AE7C
000001777325112021080602072897174102F8
00000177832511202111000207707286394ED8
0000017793251120211100026804504001E986
0000017803251120211100012511995885B767
00000178132511202111000133710253486E2C
000001782325112021110002072897174150AB
00000178332511202111000122282727622309
0000017843251120211101012319273656DC4A
00000178532511202111010122472864635314
00000178632511202112000207707286398677
0000017873251120211200013371025348542C
000001788325112021120001251199588567EF
0000017893251120211200026804504001CBA1
00000179032511202112000212836394266606
00000179132511202112000122282727629DA9
000001792325112021120001292336334745FD
00000179332511202112000124644839924757
00000179432511202112000123192736566F6A
000001795325112021120102072897174196CF
000001796325112021120101224728646341D5
000001797325112021120201239892975438B9
000001798325112021130001344363434530CB
00000179932511202113000212836394265736
0000018003251120211300012923363347D6D9
0000018013251120211300012464483992D473
00000180232511202113000132222023459376
0000018033251120211300012319273656C1E9
000001804325112021130201239892975407FC
0000018053251120211400013443634345336D
00000180632511202114000132222023457A27
0000018073251120211755026804504001B230
000001808325112021175501337102534881DC
0000018093251120211755013443634345B429
00000181032511202117550123989297545422
00000181132511202117560124644839925308
0000018123251120211756013222202345140D
0000018133251120211757012923363347F043
000001814325112021175701231927365676B5
0000018153251120211758012228272762D4E2
0000018163251120211800021283639426B5E2
00000181732511202118580207289717411C10
0000018183251120211858020770728639FEC6
000001819325112021185801251199588559B7
00000182032611202107550134436343450610
000001821326112021075501322220234507B9
0000018223261120210755013371025348D767
0000018233261120210755012247286463929B
0000018243261120210757026804504001F181
0000018253261120210757012398929754DBD0
00000182632611202107580124644839929AEE
0000018273261120210758012228272762A492
00000182832611202107580123192736562D1F
000001829326112021075802128363942619D4
00000183032611202108000125119958856610
00000183132611202108010207707286398402
00000183232611202108070207289717414BD4
00000183332611202108090123192736567323
0000018343261120210809012923363347F5D5
00000183532611202110590122282727626CC7
00000183632611202111000268045040019E87
000001837326112021110001251199588532C9
00000183832611202111000207707286397F30
00000183932611202111000124644839923AB0
00000184032611202111000207289717418290
00000184132611202111000122472864631D69
00000184232611202111010133710253485515
0000018433261120211159020728971741AEEF
00000184432611202112000125119958855F5C
0000018453261120211200020770728639F82D
00000184632611202112000268045040011790
00000184732611202112000122472864632769
00000184832611202112000124644839921FC6
000001849326112021120001222827276221BA
00000185032611202112000123192736566474
000001851326112021120102128363942615DC
0000018523261120211201013371025348A356
000001853326112021120201239892975433A7
00000185432611202113000134436343450878
0000018553261120211300012319273656F72F
0000018563261120211301021283639426CE64
00000185732611202113010132222023450451
00000185832611202113020123989297544A74
00000185932611202113030129233633476953
0000018603261120211400013443634345DE83
0000018613261120211400013222202345DF2A
0000018623261120211403012923363347F941
0000018633261120211655013443634345B1D2
0000018643261120211655012398929754AE37
000001865326112021165501224728646318FE
000001866326112021165501337102534815E1
00000186732611202116560268045040010320
00000186832611202116560207707286394EF6
0000018693261120211656012228272762996B
0000018703261120211656013222202345225B
